{
  "contractName": "Bounty",
  "abi": [
    {
      "constant": true,
      "inputs": [
        {
          "name": "",
          "type": "uint256"
        }
      ],
      "name": "challengerAddresses",
      "outputs": [
        {
          "name": "",
          "type": "address"
        }
      ],
      "payable": false,
      "stateMutability": "view",
      "type": "function"
    },
    {
      "constant": true,
      "inputs": [
        {
          "name": "",
          "type": "uint256"
        }
      ],
      "name": "voterAddresses",
      "outputs": [
        {
          "name": "",
          "type": "address"
        }
      ],
      "payable": false,
      "stateMutability": "view",
      "type": "function"
    },
    {
      "inputs": [
        {
          "name": "_posterDeposit",
          "type": "uint256"
        },
        {
          "name": "_owner",
          "type": "address"
        },
        {
          "name": "_id",
          "type": "uint256"
        },
        {
          "name": "_description",
          "type": "string"
        },
        {
          "name": "_voterDeposit",
          "type": "uint256"
        },
        {
          "name": "_challengerDeadline",
          "type": "uint256"
        },
        {
          "name": "_voterDeadline",
          "type": "uint256"
        }
      ],
      "payable": true,
      "stateMutability": "payable",
      "type": "constructor"
    },
    {
      "anonymous": false,
      "inputs": [
        {
          "indexed": false,
          "name": "",
          "type": "string"
        }
      ],
      "name": "logString",
      "type": "event"
    },
    {
      "constant": true,
      "inputs": [],
      "name": "getBountyTotal",
      "outputs": [
        {
          "name": "balance",
          "type": "uint256"
        }
      ],
      "payable": false,
      "stateMutability": "view",
      "type": "function"
    },
    {
      "constant": false,
      "inputs": [
        {
          "name": "_ipfsHash",
          "type": "string"
        }
      ],
      "name": "submitChallenge",
      "outputs": [],
      "payable": false,
      "stateMutability": "nonpayable",
      "type": "function"
    },
    {
      "constant": true,
      "inputs": [],
      "name": "getAllChallengerAddresses",
      "outputs": [
        {
          "name": "",
          "type": "address[]"
        }
      ],
      "payable": false,
      "stateMutability": "view",
      "type": "function"
    },
    {
      "constant": false,
      "inputs": [],
      "name": "submitVoteDeposit",
      "outputs": [],
      "payable": true,
      "stateMutability": "payable",
      "type": "function"
    },
    {
      "constant": false,
      "inputs": [
        {
          "name": "commit",
          "type": "bytes32"
        }
      ],
      "name": "submitCommit",
      "outputs": [],
      "payable": false,
      "stateMutability": "nonpayable",
      "type": "function"
    },
    {
      "constant": false,
      "inputs": [
        {
          "name": "challengerAddress",
          "type": "address"
        },
        {
          "name": "secret",
          "type": "string"
        }
      ],
      "name": "revealCommit",
      "outputs": [],
      "payable": false,
      "stateMutability": "nonpayable",
      "type": "function"
    }
  ],
  "bytecode": "0x608060405260405162001198380380620011988339810180604052810190808051906020019092919080519060200190929190805190602001909291908051820192919060200180519060200190929190805190602001909291908051906020019092919050505086341015151561012b576040517f08c379a000000000000000000000000000000000000000000000000000000000815260040180806020018281038252604c8152602001807f496e73756666696369656e742066756e64732c204554482073656e74206d757381526020017f742062652067726561746572207468616e206f7220657175616c20746f20626f81526020017f756e7479206465706f736974000000000000000000000000000000000000000081525060600191505060405180910390fd5b6000600960006101000a81548160ff021916908315150217905515156101b9576040517f08c379a00000000000000000000000000000000000000000000000000000000081526004018080602001828103825260188152602001807f426f756e7479206973206e6f74206d6f6469666961626c65000000000000000081525060200191505060405180910390fd5b86600281905550856000806101000a81548173ffffffffffffffffffffffffffffffffffffffff021916908373ffffffffffffffffffffffffffffffffffffffff160217905550846001819055506000600181111561021457fe5b600381905550426004819055508360059080519060200190610237929190610274565b508260068190555081600781905550806008819055506001600960006101000a81548160ff02191690831515021790555050505050505050610319565b828054600181600116156101000203166002900490600052602060002090601f016020900481019282601f106102b557805160ff19168380011785556102e3565b828001600101855582156102e3579182015b828111156102e25782518255916020019190600101906102c7565b5b5090506102f091906102f4565b5090565b61031691905b808211156103125760008160009055506001016102fa565b5090565b90565b610e6f80620003296000396000f30060806040526004361061008e576000357c0100000000000000000000000000000000000000000000000000000000900463ffffffff1680634f7b5c8a1461009357806362995898146100fc5780637957e2481461012d5780639ccbe0ab146101585780639ed31b9814610162578063a28b50f7146101ce578063dd0e23731461023b578063f62c9481146102a8575b600080fd5b34801561009f57600080fd5b506100fa600480360381019080803590602001908201803590602001908080601f0160208091040260200160405190810160405280939291908181526020018383808284378201915050505050509192919290505050610331565b005b34801561010857600080fd5b5061012b600480360381019080803560001916906020019092919050505061043b565b005b34801561013957600080fd5b506101426106c4565b6040518082815260200191505060405180910390f35b6101606106e3565b005b34801561016e57600080fd5b5061017761093e565b6040518080602001828103825283818151815260200191508051906020019060200280838360005b838110156101ba57808201518184015260208101905061019f565b505050509050019250505060405180910390f35b3480156101da57600080fd5b506101f9600480360381019080803590602001909291905050506109cc565b604051808273ffffffffffffffffffffffffffffffffffffffff1673ffffffffffffffffffffffffffffffffffffffff16815260200191505060405180910390f35b34801561024757600080fd5b5061026660048036038101908080359060200190929190505050610a0a565b604051808273ffffffffffffffffffffffffffffffffffffffff1673ffffffffffffffffffffffffffffffffffffffff16815260200191505060405180910390f35b3480156102b457600080fd5b5061032f600480360381019080803573ffffffffffffffffffffffffffffffffffffffff169060200190929190803590602001908201803590602001908080601f0160208091040260200160405190810160405280939291908181526020018383808284378201915050505050509192919290505050610a48565b005b6000600754421015156103ac576040517f08c379a000000000000000000000000000000000000000000000000000000000815260040180806020018281038252601e8152602001807f4368616c6c656e676520646561646c696e65206861732065787069726564000081525060200191505060405180910390fd5b600a60003373ffffffffffffffffffffffffffffffffffffffff1673ffffffffffffffffffffffffffffffffffffffff16815260200190815260200160002090508060000182908060018154018082558091505090600182039060005260206000200160009091929091909150908051906020019061042c929190610d9e565b50504281600101819055505050565b6000600854421015156104b6576040517f08c379a000000000000000000000000000000000000000000000000000000000815260040180806020018281038252601b8152602001807f436f6d6d697420646561646c696e65206861732065787069726564000000000081525060200191505060405180910390fd5b60075442111515610555576040517f08c379a00000000000000000000000000000000000000000000000000000000081526004018080602001828103825260228152602001807f4368616c6c656e676520706572696f6420686173206e6f7420656e646564207981526020017f657400000000000000000000000000000000000000000000000000000000000081525060400191505060405180910390fd5b600c60003373ffffffffffffffffffffffffffffffffffffffff1673ffffffffffffffffffffffffffffffffffffffff168152602001908152602001600020905060008160030154111515610612576040517f08c379a000000000000000000000000000000000000000000000000000000000815260040180806020018281038252601a8152602001807f4e6f7420656e6f75676820766f74657320617661696c61626c6500000000000081525060200191505060405180910390fd5b8060030154600654028160000154111515610695576040517f08c379a00000000000000000000000000000000000000000000000000000000081526004018080602001828103825260128152602001807f496e73756666696369656e742066756e6473000000000000000000000000000081525060200191505060405180910390fd5b428160010181905550818160020181600019169055508060030160008154809291906001900391905055505050565b60003073ffffffffffffffffffffffffffffffffffffffff1631905090565b60006008544210151561075e576040517f08c379a000000000000000000000000000000000000000000000000000000000815260040180806020018281038252601b8152602001807f436f6d6d697420646561646c696e65206861732065787069726564000000000081525060200191505060405180910390fd5b600754421115156107fd576040517f08c379a00000000000000000000000000000000000000000000000000000000081526004018080602001828103825260228152602001807f4368616c6c656e676520706572696f6420686173206e6f7420656e646564207981526020017f657400000000000000000000000000000000000000000000000000000000000081525060400191505060405180910390fd5b6006543410151515610877576040517f08c379a00000000000000000000000000000000000000000000000000000000081526004018080602001828103825260128152602001807f496e73756666696369656e742066756e6473000000000000000000000000000081525060200191505060405180910390fd5b600c60003373ffffffffffffffffffffffffffffffffffffffff1673ffffffffffffffffffffffffffffffffffffffff16815260200190815260200160002090503481600001819055508060030160008154809291906001019190505550600d3390806001815401808255809150509060018203906000526020600020016000909192909190916101000a81548173ffffffffffffffffffffffffffffffffffffffff021916908373ffffffffffffffffffffffffffffffffffffffff1602179055505050565b6060600b8054806020026020016040519081016040528092919081815260200182805480156109c257602002820191906000526020600020905b8160009054906101000a900473ffffffffffffffffffffffffffffffffffffffff1673ffffffffffffffffffffffffffffffffffffffff1681526020019060010190808311610978575b5050505050905090565b600b818154811015156109db57fe5b906000526020600020016000915054906101000a900473ffffffffffffffffffffffffffffffffffffffff1681565b600d81815481101515610a1957fe5b906000526020600020016000915054906101000a900473ffffffffffffffffffffffffffffffffffffffff1681565b60008060006202a3006008540142101515610acb576040517f08c379a000000000000000000000000000000000000000000000000000000000815260040180806020018281038252601b8152602001807f52657665616c20646561646c696e65206861732065787069726564000000000081525060200191505060405180910390fd5b60085442111515610b44576040517f08c379a000000000000000000000000000000000000000000000000000000000815260040180806020018281038252601f8152602001807f436f6d6d697420706572696f6420686173206e6f7420656e646564207965740081525060200191505060405180910390fd5b600c60003373ffffffffffffffffffffffffffffffffffffffff1673ffffffffffffffffffffffffffffffffffffffff16815260200190815260200160002092508484604051602001808373ffffffffffffffffffffffffffffffffffffffff1673ffffffffffffffffffffffffffffffffffffffff166c0100000000000000000000000002815260140182805190602001908083835b602083101515610c005780518252602082019150602081019050602083039250610bdb565b6001836020036101000a038019825116818451168082178552505050505050905001925050506040516020818303038152906040526040518082805190602001908083835b602083101515610c6a5780518252602082019150602081019050602083039250610c45565b6001836020036101000a038019825116818451168082178552505050505050905001915050604051809103902091508160001916836002015460001916141515610d42576040517f08c379a00000000000000000000000000000000000000000000000000000000081526004018080602001828103825260368152602001807f50726576696f75736c79207375626d697474656420636f6d6d697420646f657381526020017f206e6f74206d617463682072657665616c20686173680000000000000000000081525060400191505060405180910390fd5b600a60008673ffffffffffffffffffffffffffffffffffffffff1673ffffffffffffffffffffffffffffffffffffffff168152602001908152602001600020905080600201600081548092919060010191905055505050505050565b828054600181600116156101000203166002900490600052602060002090601f016020900481019282601f10610ddf57805160ff1916838001178555610e0d565b82800160010185558215610e0d579182015b82811115610e0c578251825591602001919060010190610df1565b5b509050610e1a9190610e1e565b5090565b610e4091905b80821115610e3c576000816000905550600101610e24565b5090565b905600a165627a7a7230582085c1427579e59bbfdf3330be281e1e96a7524ff2421cad3c3a75134e212b1d470029",
  "source": "pragma solidity ^0.4.18;\n\ncontract Bounty {\n\n    address owner;\n    uint id;\n    uint posterDeposit;\n    uint status;\n    uint creationTimestamp;\n    string description;\n    uint voterDeposit;\n    uint challengerDeadline;\n    uint voterDeadline;\n    bool isInitialized;\n\n    enum Status {\n        Active,\n        Inactive\n    }\n\n    struct Challenge {\n        string[] ipfsHash;\n        uint submissionTimestamp;\n        uint upVotes;\n    }\n\n    mapping(address => Challenge) challenger;\n    address[] public challengerAddresses;\n\n    struct Vote {\n        uint deposit;\n        uint commitTimestamp;\n        bytes32 hashedCommit; \n        uint upVotesAvailable;\n    }\n\n    mapping(address => Vote) voter;\n    address[] public voterAddresses;\n\n    event logString(string);\n\n\n    constructor(\n        uint _posterDeposit, \n        address _owner,\n        uint _id, \n        string _description,\n        uint _voterDeposit,\n        uint _challengerDeadline,\n        uint _voterDeadline\n        ) \n    public \n    payable\n    {\n        require(msg.value >= _posterDeposit, \"Insufficient funds, ETH sent must be greater than or equal to bounty deposit\");\n        require(isInitialized = false, \"Bounty is not modifiable\");\n\n        posterDeposit = _posterDeposit;\n        owner = _owner;\n        id = _id;\n        status = uint(Status.Active);\n        creationTimestamp = now;\n        description = _description;\n        voterDeposit = _voterDeposit;\n        challengerDeadline = _challengerDeadline;\n        voterDeadline = _voterDeadline;\n\n        isInitialized = true;\n    }\n\n    // /** @dev Initialized Bounty contract with variables passed in from BountyBoard contract\n    // *   @param _description - description of bounty\n    // *   @param _voterDeposit - amount deposited by voter\n    // *   @param _challengerDeadline - deadline for submitting challenges\n    // *   @param _voterDeadline - deadline for submitting vote commits\n    // */\n    // function initializeBounty(\n    //     string _description, \n    //     uint _voterDeposit, \n    //     uint _challengerDeadline, \n    //     uint _voterDeadline\n    // )\n    // public\n    // {\n    //     require(isInitialized = false, \"Bounty is not modifiable\");\n\n    //     owner = msg.sender;\n    //     status = uint(Status.Active);\n    //     creationTimestamp = now;\n    //     description = _description;\n    //     voterDeposit = _voterDeposit;\n    //     challengerDeadline = _challengerDeadline;\n    //     voterDeadline = _voterDeadline;\n\n    //     isInitialized = true;\n    // }\n\n\n    // GENERAL FUNCTIONS \\\\\n\n    /** @dev Returns the total amount held in the bounty\n    Note: This is not particularly useful, the vote and challenger bounties need to be differentiated. \n    *   @return balance of contract\n    */\n    function getBountyTotal() \n    public\n    view\n    returns(uint balance)\n    {\n        return address(this).balance;\n    }\n\n\n    // CHALLENGER INTERFACE \\\\\n\n    /** @dev Maps sender address to deposit, IPFS Hash, timestamp, upVotes, and an array of voter addresses. Stores ETH deposited and updates the challenger addresss array\n    *   @param _ipfsHash - Hash of content submitted to IPFS\n    */\n    function submitChallenge(string _ipfsHash) \n    public\n    {\n        require(now < challengerDeadline, \"Challenge deadline has expired\");\n        \n        Challenge storage _challenger = challenger[msg.sender];\n\n        _challenger.ipfsHash.push(_ipfsHash);\n        _challenger.submissionTimestamp = now;\n    }   \n\n\n    /** @dev Returns array containing challenger addresses\n    *   @return array of challenger addresses\n    */\n    function getAllChallengerAddresses() \n    public\n    view \n    returns(address[])\n    {\n        return challengerAddresses;\n    }\n\n\n    // VOTER INTERFACE \\\\    \n\n    function submitVoteDeposit()\n    public\n    payable\n    {\n        require(now < voterDeadline, \"Commit deadline has expired\");\n        require(now > challengerDeadline, \"Challenge period has not ended yet\");\n        require(msg.value >= voterDeposit, \"Insufficient funds\");\n\n        Vote storage _voter = voter[msg.sender];\n\n        _voter.deposit = msg.value;\n        _voter.upVotesAvailable++;\n        voterAddresses.push(msg.sender);\n    }\n\n    function submitCommit(bytes32 commit) public {\n        require(now < voterDeadline, \"Commit deadline has expired\");\n        require(now > challengerDeadline, \"Challenge period has not ended yet\");\n\n        Vote storage _voter = voter[msg.sender];\n\n        require(_voter.upVotesAvailable > 0, \"Not enough votes available\");\n        require(_voter.deposit > voterDeposit * _voter.upVotesAvailable, \"Insufficient funds\");\n\n        _voter.commitTimestamp = now;\n        _voter.hashedCommit = commit;\n        _voter.upVotesAvailable--;\n    }\n\n    function revealCommit(address challengerAddress, string secret) public {\n        require(now < voterDeadline + 2 days, \"Reveal deadline has expired\");\n        require(now > voterDeadline, \"Commit period has not ended yet\");\n\n        Vote storage _voter = voter[msg.sender];\n\n        bytes32 hashedVote = keccak256(abi.encodePacked(challengerAddress, secret));\n\n        require(_voter.hashedCommit == hashedVote, \"Previously submitted commit does not match reveal hash\");\n\n        Challenge storage _challenger = challenger[challengerAddress];\n\n        _challenger.upVotes++; \n    }\n}",
  "sourcePath": "/home/corvo/ScottWorks/Blockchain/Final-Project-Smart-Contracts/Bounty/contracts/Bounty.sol",
  "compiler": {
    "name": "solc",
    "version": "0.4.24+commit.e67f0147.Emscripten.clang"
  },
  "schemaVersion": "2.0.1",
  "updatedAt": "2018-08-03T16:21:58.573Z"
}